{
	"_format": "hh-sol-artifact-1",
	"contractName": "SimpleAccountFactory",
	"sourceName": "contracts/WalletFactory.sol",
	"abi": [
		{
			"inputs": [
				{
					"internalType": "contract IEntryPoint",
					"name": "_entryPoint",
					"type": "address"
				},
				{
					"internalType": "address",
					"name": "_attestationStation",
					"type": "address"
				}
			],
			"stateMutability": "nonpayable",
			"type": "constructor"
		},
		{
			"inputs": [],
			"name": "accountImplementation",
			"outputs": [
				{
					"internalType": "contract SimpleAccount",
					"name": "",
					"type": "address"
				}
			],
			"stateMutability": "view",
			"type": "function"
		},
		{
			"inputs": [],
			"name": "attestationStation",
			"outputs": [
				{
					"internalType": "address",
					"name": "",
					"type": "address"
				}
			],
			"stateMutability": "view",
			"type": "function"
		},
		{
			"inputs": [
				{
					"internalType": "address",
					"name": "owner",
					"type": "address"
				},
				{
					"internalType": "uint256",
					"name": "salt",
					"type": "uint256"
				}
			],
			"name": "createAccount",
			"outputs": [
				{
					"internalType": "contract SimpleAccount",
					"name": "ret",
					"type": "address"
				}
			],
			"stateMutability": "nonpayable",
			"type": "function"
		},
		{
			"inputs": [
				{
					"internalType": "address",
					"name": "owner",
					"type": "address"
				},
				{
					"internalType": "uint256",
					"name": "salt",
					"type": "uint256"
				}
			],
			"name": "getAddress",
			"outputs": [
				{
					"internalType": "address",
					"name": "",
					"type": "address"
				}
			],
			"stateMutability": "view",
			"type": "function"
		}
	],
	"bytecode": "0x60a06040523480156200001157600080fd5b5060405162005648380380620056488339818101604052810190620000379190620001aa565b81816040516200004790620000ed565b620000549291906200026d565b604051809103906000f08015801562000071573d6000803e3d6000fd5b5073ffffffffffffffffffffffffffffffffffffffff1660808173ffffffffffffffffffffffffffffffffffffffff1681525050806000806101000a81548173ffffffffffffffffffffffffffffffffffffffff021916908373ffffffffffffffffffffffffffffffffffffffff16021790555050506200029a565b61407b80620015cd83390190565b600080fd5b600073ffffffffffffffffffffffffffffffffffffffff82169050919050565b60006200012d8262000100565b9050919050565b6000620001418262000120565b9050919050565b620001538162000134565b81146200015f57600080fd5b50565b600081519050620001738162000148565b92915050565b620001848162000120565b81146200019057600080fd5b50565b600081519050620001a48162000179565b92915050565b60008060408385031215620001c457620001c3620000fb565b5b6000620001d48582860162000162565b9250506020620001e78582860162000193565b9150509250929050565b6000819050919050565b60006200021c62000216620002108462000100565b620001f1565b62000100565b9050919050565b60006200023082620001fb565b9050919050565b6000620002448262000223565b9050919050565b620002568162000237565b82525050565b620002678162000120565b82525050565b60006040820190506200028460008301856200024b565b6200029360208301846200025c565b9392505050565b608051611309620002c46000396000818161010901528181610173015261028801526113096000f3fe60806040523480156200001157600080fd5b5060043610620000525760003560e01c806311464fbe14620000575780635fbfb9cf146200007957806365a0aee214620000af5780638cb84e1814620000d1575b600080fd5b6200006162000107565b60405162000070919062000433565b60405180910390f35b620000976004803603810190620000919190620004d5565b6200012b565b604051620000a6919062000433565b60405180910390f35b620000b962000232565b604051620000c891906200052d565b60405180910390f35b620000ef6004803603810190620000e99190620004d5565b62000256565b604051620000fe91906200052d565b60405180910390f35b7f000000000000000000000000000000000000000000000000000000000000000081565b6000806200013a848462000256565b905060008173ffffffffffffffffffffffffffffffffffffffff163b905060008111156200016d5781925050506200022c565b8360001b7f000000000000000000000000000000000000000000000000000000000000000086604051602401620001a591906200052d565b60405160208183030381529060405263c4d66de860e01b6020820180517bffffffffffffffffffffffffffffffffffffffffffffffffffffffff8381831617835250505050604051620001f8906200039a565b62000205929190620005e4565b8190604051809103906000f590508015801562000226573d6000803e3d6000fd5b50925050505b92915050565b60008054906101000a900473ffffffffffffffffffffffffffffffffffffffff1681565b6000620003508260001b6040518060200162000272906200039a565b6020820181038252601f19601f820116604052507f000000000000000000000000000000000000000000000000000000000000000086604051602401620002ba91906200052d565b60405160208183030381529060405263c4d66de860e01b6020820180517bffffffffffffffffffffffffffffffffffffffffffffffffffffffff838183161783525050505060405160200162000312929190620005e4565b604051602081830303815290604052604051602001620003349291906200065a565b6040516020818303038152906040528051906020012062000358565b905092915050565b6000620003678383306200036f565b905092915050565b6000604051836040820152846020820152828152600b810160ff815360558120925050509392505050565b610c51806200068383390190565b600073ffffffffffffffffffffffffffffffffffffffff82169050919050565b6000819050919050565b6000620003f3620003ed620003e784620003a8565b620003c8565b620003a8565b9050919050565b60006200040782620003d2565b9050919050565b60006200041b82620003fa565b9050919050565b6200042d816200040e565b82525050565b60006020820190506200044a600083018462000422565b92915050565b600080fd5b60006200046282620003a8565b9050919050565b620004748162000455565b81146200048057600080fd5b50565b600081359050620004948162000469565b92915050565b6000819050919050565b620004af816200049a565b8114620004bb57600080fd5b50565b600081359050620004cf81620004a4565b92915050565b60008060408385031215620004ef57620004ee62000450565b5b6000620004ff8582860162000483565b92505060206200051285828601620004be565b9150509250929050565b620005278162000455565b82525050565b60006020820190506200054460008301846200051c565b92915050565b600081519050919050565b600082825260208201905092915050565b60005b838110156200058657808201518184015260208101905062000569565b60008484015250505050565b6000601f19601f8301169050919050565b6000620005b0826200054a565b620005bc818562000555565b9350620005ce81856020860162000566565b620005d98162000592565b840191505092915050565b6000604082019050620005fb60008301856200051c565b81810360208301526200060f8184620005a3565b90509392505050565b600081905092915050565b600062000630826200054a565b6200063c818562000618565b93506200064e81856020860162000566565b80840191505092915050565b600062000668828562000623565b915062000676828462000623565b9150819050939250505056fe608060405260405162000c5138038062000c51833981810160405281019062000029919062000580565b6200003d828260006200004560201b60201c565b5050620007d7565b62000056836200008860201b60201c565b600082511180620000645750805b156200008357620000818383620000df60201b620000371760201c565b505b505050565b62000099816200011560201b60201c565b8073ffffffffffffffffffffffffffffffffffffffff167fbc7cd75a20ee27fd9adebab32041f755214dbc6bffa90cc0225b39da2e5c2d3b60405160405180910390a250565b60606200010d838360405180606001604052806027815260200162000c2a60279139620001eb60201b60201c565b905092915050565b6200012b816200027d60201b620000641760201c565b6200016d576040517f08c379a000000000000000000000000000000000000000000000000000000000815260040162000164906200066d565b60405180910390fd5b80620001a77f360894a13ba1a3210667c828492db98dca3e2076cc3735a920a3ca505d382bbc60001b620002a060201b620000871760201c565b60000160006101000a81548173ffffffffffffffffffffffffffffffffffffffff021916908373ffffffffffffffffffffffffffffffffffffffff16021790555050565b60606000808573ffffffffffffffffffffffffffffffffffffffff1685604051620002179190620006dc565b600060405180830381855af49150503d806000811462000254576040519150601f19603f3d011682016040523d82523d6000602084013e62000259565b606091505b50915091506200027286838387620002aa60201b60201c565b925050509392505050565b6000808273ffffffffffffffffffffffffffffffffffffffff163b119050919050565b6000819050919050565b606083156200031a5760008351036200031157620002ce856200027d60201b60201c565b62000310576040517f08c379a0000000000000000000000000000000000000000000000000000000008152600401620003079062000745565b60405180910390fd5b5b8290506200032d565b6200032c83836200033560201b60201c565b5b949350505050565b600082511115620003495781518083602001fd5b806040517f08c379a00000000000000000000000000000000000000000000000000000000081526004016200037f9190620007b3565b60405180910390fd5b6000604051905090565b600080fd5b600080fd5b600073ffffffffffffffffffffffffffffffffffffffff82169050919050565b6000620003c9826200039c565b9050919050565b620003db81620003bc565b8114620003e757600080fd5b50565b600081519050620003fb81620003d0565b92915050565b600080fd5b600080fd5b6000601f19601f8301169050919050565b7f4e487b7100000000000000000000000000000000000000000000000000000000600052604160045260246000fd5b62000456826200040b565b810181811067ffffffffffffffff821117156200047857620004776200041c565b5b80604052505050565b60006200048d62000388565b90506200049b82826200044b565b919050565b600067ffffffffffffffff821115620004be57620004bd6200041c565b5b620004c9826200040b565b9050602081019050919050565b60005b83811015620004f6578082015181840152602081019050620004d9565b60008484015250505050565b6000620005196200051384620004a0565b62000481565b90508281526020810184848401111562000538576200053762000406565b5b62000545848285620004d6565b509392505050565b600082601f83011262000565576200056462000401565b5b81516200057784826020860162000502565b91505092915050565b600080604083850312156200059a576200059962000392565b5b6000620005aa85828601620003ea565b925050602083015167ffffffffffffffff811115620005ce57620005cd62000397565b5b620005dc858286016200054d565b9150509250929050565b600082825260208201905092915050565b7f455243313936373a206e657720696d706c656d656e746174696f6e206973206e60008201527f6f74206120636f6e747261637400000000000000000000000000000000000000602082015250565b600062000655602d83620005e6565b91506200066282620005f7565b604082019050919050565b60006020820190508181036000830152620006888162000646565b9050919050565b600081519050919050565b600081905092915050565b6000620006b2826200068f565b620006be81856200069a565b9350620006d0818560208601620004d6565b80840191505092915050565b6000620006ea8284620006a5565b915081905092915050565b7f416464726573733a2063616c6c20746f206e6f6e2d636f6e7472616374000000600082015250565b60006200072d601d83620005e6565b91506200073a82620006f5565b602082019050919050565b6000602082019050818103600083015262000760816200071e565b9050919050565b600081519050919050565b60006200077f8262000767565b6200078b8185620005e6565b93506200079d818560208601620004d6565b620007a8816200040b565b840191505092915050565b60006020820190508181036000830152620007cf818462000772565b905092915050565b61044380620007e76000396000f3fe6080604052366100135761001161001d565b005b61001b61001d565b005b610025610091565b610035610030610093565b6100a2565b565b606061005c83836040518060600160405280602781526020016103e7602791396100c8565b905092915050565b6000808273ffffffffffffffffffffffffffffffffffffffff163b119050919050565b6000819050919050565b565b600061009d61014e565b905090565b3660008037600080366000845af43d6000803e80600081146100c3573d6000f35b3d6000fd5b60606000808573ffffffffffffffffffffffffffffffffffffffff16856040516100f291906102db565b600060405180830381855af49150503d806000811461012d576040519150601f19603f3d011682016040523d82523d6000602084013e610132565b606091505b5091509150610143868383876101a5565b925050509392505050565b600061017c7f360894a13ba1a3210667c828492db98dca3e2076cc3735a920a3ca505d382bbc60001b610087565b60000160009054906101000a900473ffffffffffffffffffffffffffffffffffffffff16905090565b606083156102075760008351036101ff576101bf85610064565b6101fe576040517f08c379a00000000000000000000000000000000000000000000000000000000081526004016101f59061034f565b60405180910390fd5b5b829050610212565b610211838361021a565b5b949350505050565b60008251111561022d5781518083602001fd5b806040517f08c379a000000000000000000000000000000000000000000000000000000000815260040161026191906103c4565b60405180910390fd5b600081519050919050565b600081905092915050565b60005b8381101561029e578082015181840152602081019050610283565b60008484015250505050565b60006102b58261026a565b6102bf8185610275565b93506102cf818560208601610280565b80840191505092915050565b60006102e782846102aa565b915081905092915050565b600082825260208201905092915050565b7f416464726573733a2063616c6c20746f206e6f6e2d636f6e7472616374000000600082015250565b6000610339601d836102f2565b915061034482610303565b602082019050919050565b600060208201905081810360008301526103688161032c565b9050919050565b600081519050919050565b6000601f19601f8301169050919050565b60006103968261036f565b6103a081856102f2565b93506103b0818560208601610280565b6103b98161037a565b840191505092915050565b600060208201905081810360008301526103de818461038b565b90509291505056fe416464726573733a206c6f772d6c6576656c2064656c65676174652063616c6c206661696c6564a2646970667358221220e57dd3eafc9985be746025b6d82d4f011b9a7bb3db56f9a1eb7eadfddd376b6064736f6c63430008110033416464726573733a206c6f772d6c6576656c2064656c65676174652063616c6c206661696c6564a2646970667358221220d90e87d80c79b2fd65ee0b6437f5d9256c462d4e13ba67f94d2acb58db44843f64736f6c6343000811003360c06040523073ffffffffffffffffffffffffffffffffffffffff1660809073ffffffffffffffffffffffffffffffffffffffff168152503480156200004457600080fd5b506040516200407b3803806200407b83398181016040528101906200006a91906200026f565b818073ffffffffffffffffffffffffffffffffffffffff1660a08173ffffffffffffffffffffffffffffffffffffffff1681525050620000af620000f960201b60201c565b5080600360006101000a81548173ffffffffffffffffffffffffffffffffffffffff021916908373ffffffffffffffffffffffffffffffffffffffff16021790555050506200039a565b600060019054906101000a900460ff16156200014c576040517f08c379a000000000000000000000000000000000000000000000000000000000815260040162000143906200033d565b60405180910390fd5b60ff801660008054906101000a900460ff1660ff161015620001be5760ff6000806101000a81548160ff021916908360ff1602179055507f7f26b83ff96e1f2b6a682f133852f6798a09c465da95921460cefb384740249860ff604051620001b591906200037d565b60405180910390a15b565b600080fd5b600073ffffffffffffffffffffffffffffffffffffffff82169050919050565b6000620001f282620001c5565b9050919050565b60006200020682620001e5565b9050919050565b6200021881620001f9565b81146200022457600080fd5b50565b60008151905062000238816200020d565b92915050565b6200024981620001e5565b81146200025557600080fd5b50565b60008151905062000269816200023e565b92915050565b60008060408385031215620002895762000288620001c0565b5b6000620002998582860162000227565b9250506020620002ac8582860162000258565b9150509250929050565b600082825260208201905092915050565b7f496e697469616c697a61626c653a20636f6e747261637420697320696e69746960008201527f616c697a696e6700000000000000000000000000000000000000000000000000602082015250565b600062000325602783620002b6565b91506200033282620002c7565b604082019050919050565b60006020820190508181036000830152620003588162000316565b9050919050565b600060ff82169050919050565b62000377816200035f565b82525050565b60006020820190506200039460008301846200036c565b92915050565b60805160a051613c98620003e3600039600081816111450152611e790152600081816108c00152818161094e01528181610e5c01528181610eea0152610f9a0152613c986000f3fe6080604052600436106101855760003560e01c806399dff4b4116100d1578063bfe9d7571161008a578063c4d66de811610064578063c4d66de814610528578063cb459b5b14610551578063d7d0448b1461057c578063e6a2275b146105a75761018c565b8063bfe9d757146104bd578063c091d4cd146104d4578063c399ec88146104fd5761018c565b806399dff4b4146103a85780639f8643f2146103e8578063affed0e014610413578063b0d691fe1461043e578063b61d27f614610469578063bf335e62146104925761018c565b80633a871cdd1161013e5780634f1ef286116101185780634f1ef2861461030b57806352d1902d1461032757806365a0aee2146103525780638da5cb5b1461037d5761018c565b80633a871cdd1461029b5780634a58db19146102d85780634d44560d146102e25761018c565b806318dfb3c7146101915780631c8062d2146101ba5780633659cfe6146101e35780633678ce541461020c57806338ab7b021461024957806339686050146102725761018c565b3661018c57005b600080fd5b34801561019d57600080fd5b506101b860048036038101906101b3919061259a565b6105be565b005b3480156101c657600080fd5b506101e160048036038101906101dc9190612679565b6106d0565b005b3480156101ef57600080fd5b5061020a60048036038101906102059190612679565b6108be565b005b34801561021857600080fd5b50610233600480360381019061022e9190612679565b610a46565b60405161024091906126c1565b60405180910390f35b34801561025557600080fd5b50610270600480360381019061026b9190612712565b610b3f565b005b34801561027e57600080fd5b506102996004803603810190610294919061278d565b610c54565b005b3480156102a757600080fd5b506102c260048036038101906102bd919061283b565b610d1c565b6040516102cf91906128b9565b60405180910390f35b6102e0610d65565b005b3480156102ee57600080fd5b5061030960048036038101906103049190612912565b610dda565b005b61032560048036038101906103209190612a93565b610e5a565b005b34801561033357600080fd5b5061033c610f96565b6040516103499190612afe565b60405180910390f35b34801561035e57600080fd5b5061036761104f565b6040516103749190612b28565b60405180910390f35b34801561038957600080fd5b50610392611075565b60405161039f9190612b28565b60405180910390f35b3480156103b457600080fd5b506103cf60048036038101906103ca9190612679565b61109b565b6040516103df9493929190612b43565b60405180910390f35b3480156103f457600080fd5b506103fd6110eb565b60405161040a9190612b28565b60405180910390f35b34801561041f57600080fd5b50610428611111565b60405161043591906128b9565b60405180910390f35b34801561044a57600080fd5b50610453611141565b6040516104609190612be7565b60405180910390f35b34801561047557600080fd5b50610490600480360381019061048b9190612c58565b611169565b005b34801561049e57600080fd5b506104a76111c6565b6040516104b49190612b28565b60405180910390f35b3480156104c957600080fd5b506104d26111ec565b005b3480156104e057600080fd5b506104fb60048036038101906104f69190612ccc565b6111ee565b005b34801561050957600080fd5b5061051261140d565b60405161051f91906128b9565b60405180910390f35b34801561053457600080fd5b5061054f600480360381019061054a9190612679565b611495565b005b34801561055d57600080fd5b506105666115d5565b6040516105739190612b28565b60405180910390f35b34801561058857600080fd5b506105916115fb565b60405161059e9190612b28565b60405180910390f35b3480156105b357600080fd5b506105bc611621565b005b6105c6611750565b81819050848490501461060e576040517f08c379a000000000000000000000000000000000000000000000000000000000815260040161060590612d76565b60405180910390fd5b60005b848490508110156106c9576106b685858381811061063257610631612d96565b5b90506020020160208101906106479190612679565b600085858581811061065c5761065b612d96565b5b905060200281019061066e9190612dd4565b8080601f016020809104026020016040519081016040528093929190818152602001838380828437600081840152601f19601f8201169050808301925050505050505061181f565b80806106c190612e66565b915050610611565b5050505050565b6106d981610a46565b610718576040517f08c379a000000000000000000000000000000000000000000000000000000000815260040161070f90612efa565b60405180910390fd5b6000600260008373ffffffffffffffffffffffffffffffffffffffff1673ffffffffffffffffffffffffffffffffffffffff168152602001908152602001600020604051806080016040529081600082015481526020016001820160009054906101000a900473ffffffffffffffffffffffffffffffffffffffff1673ffffffffffffffffffffffffffffffffffffffff1673ffffffffffffffffffffffffffffffffffffffff168152602001600282015481526020016003820154815250509050806020015173ffffffffffffffffffffffffffffffffffffffff1663a9059cbb8383600001516040518363ffffffff1660e01b815260040161081d929190612f1a565b6020604051808303816000875af115801561083c573d6000803e3d6000fd5b505050506040513d601f19601f820116820180604052508101906108609190612f6f565b5043600260008473ffffffffffffffffffffffffffffffffffffffff1673ffffffffffffffffffffffffffffffffffffffff16815260200190815260200160002060030160008282546108b39190612f9c565b925050819055505050565b7f000000000000000000000000000000000000000000000000000000000000000073ffffffffffffffffffffffffffffffffffffffff163073ffffffffffffffffffffffffffffffffffffffff160361094c576040517f08c379a000000000000000000000000000000000000000000000000000000000815260040161094390613042565b60405180910390fd5b7f000000000000000000000000000000000000000000000000000000000000000073ffffffffffffffffffffffffffffffffffffffff1661098b6118a3565b73ffffffffffffffffffffffffffffffffffffffff16146109e1576040517f08c379a00000000000000000000000000000000000000000000000000000000081526004016109d8906130d4565b60405180910390fd5b6109ea816118fa565b610a4381600067ffffffffffffffff811115610a0957610a08612968565b5b6040519080825280601f01601f191660200182016040528015610a3b5781602001600182028036833780820191505090505b506000611905565b50565b600080600260008473ffffffffffffffffffffffffffffffffffffffff1673ffffffffffffffffffffffffffffffffffffffff168152602001908152602001600020604051806080016040529081600082015481526020016001820160009054906101000a900473ffffffffffffffffffffffffffffffffffffffff1673ffffffffffffffffffffffffffffffffffffffff1673ffffffffffffffffffffffffffffffffffffffff168152602001600282015481526020016003820154815250509050600081600001511115610b34574381604001518260600151610b2b9190612f9c565b11915050610b3a565b60009150505b919050565b610b4761248d565b8481600001818152505083816020019073ffffffffffffffffffffffffffffffffffffffff16908173ffffffffffffffffffffffffffffffffffffffff168152505082816040018181525050818160600151610ba391906130f4565b5080600260008873ffffffffffffffffffffffffffffffffffffffff1673ffffffffffffffffffffffffffffffffffffffff1681526020019081526020016000206000820151816000015560208201518160010160006101000a81548173ffffffffffffffffffffffffffffffffffffffff021916908373ffffffffffffffffffffffffffffffffffffffff1602179055506040820151816002015560608201518160030155905050505050505050565b82600460006101000a81548173ffffffffffffffffffffffffffffffffffffffff021916908373ffffffffffffffffffffffffffffffffffffffff16021790555081600560006101000a81548173ffffffffffffffffffffffffffffffffffffffff021916908373ffffffffffffffffffffffffffffffffffffffff16021790555080600660006101000a81548173ffffffffffffffffffffffffffffffffffffffff021916908373ffffffffffffffffffffffffffffffffffffffff160217905550505050565b6000610d26611a73565b610d308484611aea565b90506000848060400190610d449190612dd4565b905003610d5557610d5484611bc8565b5b610d5e82611c76565b9392505050565b610d6d611141565b73ffffffffffffffffffffffffffffffffffffffff1663b760faf934306040518363ffffffff1660e01b8152600401610da69190612b28565b6000604051808303818588803b158015610dbf57600080fd5b505af1158015610dd3573d6000803e3d6000fd5b5050505050565b610de2611d12565b610dea611141565b73ffffffffffffffffffffffffffffffffffffffff1663205c287883836040518363ffffffff1660e01b8152600401610e24929190613137565b600060405180830381600087803b158015610e3e57600080fd5b505af1158015610e52573d6000803e3d6000fd5b505050505050565b7f000000000000000000000000000000000000000000000000000000000000000073ffffffffffffffffffffffffffffffffffffffff163073ffffffffffffffffffffffffffffffffffffffff1603610ee8576040517f08c379a0000000000000000000000000000000000000000000000000000000008152600401610edf90613042565b60405180910390fd5b7f000000000000000000000000000000000000000000000000000000000000000073ffffffffffffffffffffffffffffffffffffffff16610f276118a3565b73ffffffffffffffffffffffffffffffffffffffff1614610f7d576040517f08c379a0000000000000000000000000000000000000000000000000000000008152600401610f74906130d4565b60405180910390fd5b610f86826118fa565b610f9282826001611905565b5050565b60007f000000000000000000000000000000000000000000000000000000000000000073ffffffffffffffffffffffffffffffffffffffff163073ffffffffffffffffffffffffffffffffffffffff1614611026576040517f08c379a000000000000000000000000000000000000000000000000000000000815260040161101d906131d2565b60405180910390fd5b7f360894a13ba1a3210667c828492db98dca3e2076cc3735a920a3ca505d382bbc60001b905090565b600360009054906101000a900473ffffffffffffffffffffffffffffffffffffffff1681565b6001600c9054906101000a900473ffffffffffffffffffffffffffffffffffffffff1681565b60026020528060005260406000206000915090508060000154908060010160009054906101000a900473ffffffffffffffffffffffffffffffffffffffff16908060020154908060030154905084565b600660009054906101000a900473ffffffffffffffffffffffffffffffffffffffff1681565b6000600160009054906101000a90046bffffffffffffffffffffffff166bffffffffffffffffffffffff16905090565b60007f0000000000000000000000000000000000000000000000000000000000000000905090565b611171611750565b6111c0848484848080601f016020809104026020016040519081016040528093929190818152602001838380828437600081840152601f19601f8201169050808301925050505050505061181f565b50505050565b600760009054906101000a900473ffffffffffffffffffffffffffffffffffffffff1681565b565b600073ffffffffffffffffffffffffffffffffffffffff16600760009054906101000a900473ffffffffffffffffffffffffffffffffffffffff1673ffffffffffffffffffffffffffffffffffffffff160361127f576040517f08c379a000000000000000000000000000000000000000000000000000000000815260040161127690613264565b60405180910390fd5b60005b82829050811015611408578282828181106112a05761129f612d96565b5b90506020020160208101906112b59190612679565b73ffffffffffffffffffffffffffffffffffffffff1663a9059cbb600760009054906101000a900473ffffffffffffffffffffffffffffffffffffffff1685858581811061130657611305612d96565b5b905060200201602081019061131b9190612679565b73ffffffffffffffffffffffffffffffffffffffff166370a08231306040518263ffffffff1660e01b81526004016113539190612b28565b602060405180830381865afa158015611370573d6000803e3d6000fd5b505050506040513d601f19601f820116820180604052508101906113949190613299565b6040518363ffffffff1660e01b81526004016113b1929190612f1a565b6020604051808303816000875af11580156113d0573d6000803e3d6000fd5b505050506040513d601f19601f820116820180604052508101906113f49190612f6f565b50808061140090612e66565b915050611282565b505050565b6000611417611141565b73ffffffffffffffffffffffffffffffffffffffff166370a08231306040518263ffffffff1660e01b815260040161144f9190612b28565b602060405180830381865afa15801561146c573d6000803e3d6000fd5b505050506040513d601f19601f820116820180604052508101906114909190613299565b905090565b60008060019054906101000a900460ff161590508080156114c65750600160008054906101000a900460ff1660ff16105b806114f357506114d530611dda565b1580156114f25750600160008054906101000a900460ff1660ff16145b5b611532576040517f08c379a000000000000000000000000000000000000000000000000000000000815260040161152990613338565b60405180910390fd5b60016000806101000a81548160ff021916908360ff160217905550801561156f576001600060016101000a81548160ff0219169083151502179055505b61157882611dfd565b80156115d15760008060016101000a81548160ff0219169083151502179055507f7f26b83ff96e1f2b6a682f133852f6798a09c465da95921460cefb384740249860016040516115c891906133a0565b60405180910390a15b5050565b600460009054906101000a900473ffffffffffffffffffffffffffffffffffffffff1681565b600560009054906101000a900473ffffffffffffffffffffffffffffffffffffffff1681565b600073ffffffffffffffffffffffffffffffffffffffff16600760009054906101000a900473ffffffffffffffffffffffffffffffffffffffff1673ffffffffffffffffffffffffffffffffffffffff16036116b2576040517f08c379a00000000000000000000000000000000000000000000000000000000081526004016116a990613264565b60405180910390fd5b6000600760009054906101000a900473ffffffffffffffffffffffffffffffffffffffff1673ffffffffffffffffffffffffffffffffffffffff166108fc479081150290604051600060405180830381858888f1935050505090508061174d576040517f08c379a000000000000000000000000000000000000000000000000000000000815260040161174490613407565b60405180910390fd5b50565b611758611141565b73ffffffffffffffffffffffffffffffffffffffff163373ffffffffffffffffffffffffffffffffffffffff1614806117de57506001600c9054906101000a900473ffffffffffffffffffffffffffffffffffffffff1673ffffffffffffffffffffffffffffffffffffffff163373ffffffffffffffffffffffffffffffffffffffff16145b61181d576040517f08c379a000000000000000000000000000000000000000000000000000000000815260040161181490613473565b60405180910390fd5b565b6000808473ffffffffffffffffffffffffffffffffffffffff1684846040516118489190613504565b60006040518083038185875af1925050503d8060008114611885576040519150601f19603f3d011682016040523d82523d6000602084013e61188a565b606091505b50915091508161189c57805160208201fd5b5050505050565b60006118d17f360894a13ba1a3210667c828492db98dca3e2076cc3735a920a3ca505d382bbc60001b611edd565b60000160009054906101000a900473ffffffffffffffffffffffffffffffffffffffff16905090565b611902611d12565b50565b6119317f4910fdfa16fed3260ed0e7147f7cc6da11a60208b5b9406d12a635614ffd914360001b611ee7565b60000160009054906101000a900460ff16156119555761195083611ef1565b611a6e565b8273ffffffffffffffffffffffffffffffffffffffff166352d1902d6040518163ffffffff1660e01b8152600401602060405180830381865afa9250505080156119bd57506040513d601f19601f820116820180604052508101906119ba9190613530565b60015b6119fc576040517f08c379a00000000000000000000000000000000000000000000000000000000081526004016119f3906135cf565b60405180910390fd5b7f360894a13ba1a3210667c828492db98dca3e2076cc3735a920a3ca505d382bbc60001b8114611a61576040517f08c379a0000000000000000000000000000000000000000000000000000000008152600401611a5890613661565b60405180910390fd5b50611a6d838383611faa565b5b505050565b611a7b611141565b73ffffffffffffffffffffffffffffffffffffffff163373ffffffffffffffffffffffffffffffffffffffff1614611ae8576040517f08c379a0000000000000000000000000000000000000000000000000000000008152600401611adf906136cd565b60405180910390fd5b565b600080611af683611fd6565b9050611b5e84806101400190611b0c9190612dd4565b8080601f016020809104026020016040519081016040528093929190818152602001838380828437600081840152601f19601f820116905080830192505050505050508261200690919063ffffffff16565b73ffffffffffffffffffffffffffffffffffffffff166001600c9054906101000a900473ffffffffffffffffffffffffffffffffffffffff1673ffffffffffffffffffffffffffffffffffffffff1614611bbc576001915050611bc2565b60009150505b92915050565b80602001356001600081819054906101000a90046bffffffffffffffffffffffff1680929190611bf790613705565b91906101000a8154816bffffffffffffffffffffffff02191690836bffffffffffffffffffffffff1602179055506bffffffffffffffffffffffff1614611c73576040517f08c379a0000000000000000000000000000000000000000000000000000000008152600401611c6a90613785565b60405180910390fd5b50565b60008114611d0f5760003373ffffffffffffffffffffffffffffffffffffffff16827fffffffffffffffffffffffffffffffffffffffffffffffffffffffffffffffff90604051611cc6906137cb565b600060405180830381858888f193505050503d8060008114611d04576040519150601f19603f3d011682016040523d82523d6000602084013e611d09565b606091505b50509050505b50565b6001600c9054906101000a900473ffffffffffffffffffffffffffffffffffffffff1673ffffffffffffffffffffffffffffffffffffffff163373ffffffffffffffffffffffffffffffffffffffff161480611d9957503073ffffffffffffffffffffffffffffffffffffffff163373ffffffffffffffffffffffffffffffffffffffff16145b611dd8576040517f08c379a0000000000000000000000000000000000000000000000000000000008152600401611dcf9061382c565b60405180910390fd5b565b6000808273ffffffffffffffffffffffffffffffffffffffff163b119050919050565b806001600c6101000a81548173ffffffffffffffffffffffffffffffffffffffff021916908373ffffffffffffffffffffffffffffffffffffffff1602179055506001600c9054906101000a900473ffffffffffffffffffffffffffffffffffffffff1673ffffffffffffffffffffffffffffffffffffffff167f000000000000000000000000000000000000000000000000000000000000000073ffffffffffffffffffffffffffffffffffffffff167f47e55c76e7a6f1fd8996a1da8008c1ea29699cca35e7bcd057f2dec313b6e5de60405160405180910390a350565b6000819050919050565b6000819050919050565b611efa81611dda565b611f39576040517f08c379a0000000000000000000000000000000000000000000000000000000008152600401611f30906138be565b60405180910390fd5b80611f667f360894a13ba1a3210667c828492db98dca3e2076cc3735a920a3ca505d382bbc60001b611edd565b60000160006101000a81548173ffffffffffffffffffffffffffffffffffffffff021916908373ffffffffffffffffffffffffffffffffffffffff16021790555050565b611fb38361202d565b600082511180611fc05750805b15611fd157611fcf838361207c565b505b505050565b600081604051602001611fe99190613956565b604051602081830303815290604052805190602001209050919050565b600080600061201585856120a9565b91509150612022816120fa565b819250505092915050565b61203681611ef1565b8073ffffffffffffffffffffffffffffffffffffffff167fbc7cd75a20ee27fd9adebab32041f755214dbc6bffa90cc0225b39da2e5c2d3b60405160405180910390a250565b60606120a18383604051806060016040528060278152602001613c3c60279139612260565b905092915050565b60008060418351036120ea5760008060006020860151925060408601519150606086015160001a90506120de878285856122e6565b945094505050506120f3565b60006002915091505b9250929050565b6000600481111561210e5761210d61397c565b5b8160048111156121215761212061397c565b5b031561225d576001600481111561213b5761213a61397c565b5b81600481111561214e5761214d61397c565b5b0361218e576040517f08c379a0000000000000000000000000000000000000000000000000000000008152600401612185906139f7565b60405180910390fd5b600260048111156121a2576121a161397c565b5b8160048111156121b5576121b461397c565b5b036121f5576040517f08c379a00000000000000000000000000000000000000000000000000000000081526004016121ec90613a63565b60405180910390fd5b600360048111156122095761220861397c565b5b81600481111561221c5761221b61397c565b5b0361225c576040517f08c379a000000000000000000000000000000000000000000000000000000000815260040161225390613af5565b60405180910390fd5b5b50565b60606000808573ffffffffffffffffffffffffffffffffffffffff168560405161228a9190613504565b600060405180830381855af49150503d80600081146122c5576040519150601f19603f3d011682016040523d82523d6000602084013e6122ca565b606091505b50915091506122db868383876123c8565b925050509392505050565b6000807f7fffffffffffffffffffffffffffffff5d576e7357a4501ddfe92f46681b20a08360001c11156123215760006003915091506123bf565b6000600187878787604051600081526020016040526040516123469493929190613b24565b6020604051602081039080840390855afa158015612368573d6000803e3d6000fd5b505050602060405103519050600073ffffffffffffffffffffffffffffffffffffffff168173ffffffffffffffffffffffffffffffffffffffff16036123b6576000600192509250506123bf565b80600092509250505b94509492505050565b6060831561242a576000835103612422576123e285611dda565b612421576040517f08c379a000000000000000000000000000000000000000000000000000000000815260040161241890613bb5565b60405180910390fd5b5b829050612435565b612434838361243d565b5b949350505050565b6000825111156124505781518083602001fd5b806040517f08c379a00000000000000000000000000000000000000000000000000000000081526004016124849190613c19565b60405180910390fd5b604051806080016040528060008152602001600073ffffffffffffffffffffffffffffffffffffffff16815260200160008152602001600081525090565b6000604051905090565b600080fd5b600080fd5b600080fd5b600080fd5b600080fd5b60008083601f840112612504576125036124df565b5b8235905067ffffffffffffffff811115612521576125206124e4565b5b60208301915083602082028301111561253d5761253c6124e9565b5b9250929050565b60008083601f84011261255a576125596124df565b5b8235905067ffffffffffffffff811115612577576125766124e4565b5b602083019150836020820283011115612593576125926124e9565b5b9250929050565b600080600080604085870312156125b4576125b36124d5565b5b600085013567ffffffffffffffff8111156125d2576125d16124da565b5b6125de878288016124ee565b9450945050602085013567ffffffffffffffff811115612601576126006124da565b5b61260d87828801612544565b925092505092959194509250565b600073ffffffffffffffffffffffffffffffffffffffff82169050919050565b60006126468261261b565b9050919050565b6126568161263b565b811461266157600080fd5b50565b6000813590506126738161264d565b92915050565b60006020828403121561268f5761268e6124d5565b5b600061269d84828501612664565b91505092915050565b60008115159050919050565b6126bb816126a6565b82525050565b60006020820190506126d660008301846126b2565b92915050565b6000819050919050565b6126ef816126dc565b81146126fa57600080fd5b50565b60008135905061270c816126e6565b92915050565b600080600080600060a0868803121561272e5761272d6124d5565b5b600061273c88828901612664565b955050602061274d888289016126fd565b945050604061275e88828901612664565b935050606061276f888289016126fd565b9250506080612780888289016126fd565b9150509295509295909350565b6000806000606084860312156127a6576127a56124d5565b5b60006127b486828701612664565b93505060206127c586828701612664565b92505060406127d686828701612664565b9150509250925092565b600080fd5b600061016082840312156127fc576127fb6127e0565b5b81905092915050565b6000819050919050565b61281881612805565b811461282357600080fd5b50565b6000813590506128358161280f565b92915050565b600080600060608486031215612854576128536124d5565b5b600084013567ffffffffffffffff811115612872576128716124da565b5b61287e868287016127e5565b935050602061288f86828701612826565b92505060406128a0868287016126fd565b9150509250925092565b6128b3816126dc565b82525050565b60006020820190506128ce60008301846128aa565b92915050565b60006128df8261261b565b9050919050565b6128ef816128d4565b81146128fa57600080fd5b50565b60008135905061290c816128e6565b92915050565b60008060408385031215612929576129286124d5565b5b6000612937858286016128fd565b9250506020612948858286016126fd565b9150509250929050565b600080fd5b6000601f19601f8301169050919050565b7f4e487b7100000000000000000000000000000000000000000000000000000000600052604160045260246000fd5b6129a082612957565b810181811067ffffffffffffffff821117156129bf576129be612968565b5b80604052505050565b60006129d26124cb565b90506129de8282612997565b919050565b600067ffffffffffffffff8211156129fe576129fd612968565b5b612a0782612957565b9050602081019050919050565b82818337600083830152505050565b6000612a36612a31846129e3565b6129c8565b905082815260208101848484011115612a5257612a51612952565b5b612a5d848285612a14565b509392505050565b600082601f830112612a7a57612a796124df565b5b8135612a8a848260208601612a23565b91505092915050565b60008060408385031215612aaa57612aa96124d5565b5b6000612ab885828601612664565b925050602083013567ffffffffffffffff811115612ad957612ad86124da565b5b612ae585828601612a65565b9150509250929050565b612af881612805565b82525050565b6000602082019050612b136000830184612aef565b92915050565b612b228161263b565b82525050565b6000602082019050612b3d6000830184612b19565b92915050565b6000608082019050612b5860008301876128aa565b612b656020830186612b19565b612b7260408301856128aa565b612b7f60608301846128aa565b95945050505050565b6000819050919050565b6000612bad612ba8612ba38461261b565b612b88565b61261b565b9050919050565b6000612bbf82612b92565b9050919050565b6000612bd182612bb4565b9050919050565b612be181612bc6565b82525050565b6000602082019050612bfc6000830184612bd8565b92915050565b60008083601f840112612c1857612c176124df565b5b8235905067ffffffffffffffff811115612c3557612c346124e4565b5b602083019150836001820283011115612c5157612c506124e9565b5b9250929050565b60008060008060608587031215612c7257612c716124d5565b5b6000612c8087828801612664565b9450506020612c91878288016126fd565b935050604085013567ffffffffffffffff811115612cb257612cb16124da565b5b612cbe87828801612c02565b925092505092959194509250565b60008060208385031215612ce357612ce26124d5565b5b600083013567ffffffffffffffff811115612d0157612d006124da565b5b612d0d858286016124ee565b92509250509250929050565b600082825260208201905092915050565b7f77726f6e67206172726179206c656e6774687300000000000000000000000000600082015250565b6000612d60601383612d19565b9150612d6b82612d2a565b602082019050919050565b60006020820190508181036000830152612d8f81612d53565b9050919050565b7f4e487b7100000000000000000000000000000000000000000000000000000000600052603260045260246000fd5b600080fd5b600080fd5b600080fd5b60008083356001602003843603038112612df157612df0612dc5565b5b80840192508235915067ffffffffffffffff821115612e1357612e12612dca565b5b602083019250600182023603831315612e2f57612e2e612dcf565b5b509250929050565b7f4e487b7100000000000000000000000000000000000000000000000000000000600052601160045260246000fd5b6000612e71826126dc565b91507fffffffffffffffffffffffffffffffffffffffffffffffffffffffffffffffff8203612ea357612ea2612e37565b5b600182019050919050565b7f7061796d656e74206e6f74206d61646500000000000000000000000000000000600082015250565b6000612ee4601083612d19565b9150612eef82612eae565b602082019050919050565b60006020820190508181036000830152612f1381612ed7565b9050919050565b6000604082019050612f2f6000830185612b19565b612f3c60208301846128aa565b9392505050565b612f4c816126a6565b8114612f5757600080fd5b50565b600081519050612f6981612f43565b92915050565b600060208284031215612f8557612f846124d5565b5b6000612f9384828501612f5a565b91505092915050565b6000612fa7826126dc565b9150612fb2836126dc565b9250828201905080821115612fca57612fc9612e37565b5b92915050565b7f46756e6374696f6e206d7573742062652063616c6c6564207468726f7567682060008201527f64656c656761746563616c6c0000000000000000000000000000000000000000602082015250565b600061302c602c83612d19565b915061303782612fd0565b604082019050919050565b6000602082019050818103600083015261305b8161301f565b9050919050565b7f46756e6374696f6e206d7573742062652063616c6c6564207468726f7567682060008201527f6163746976652070726f78790000000000000000000000000000000000000000602082015250565b60006130be602c83612d19565b91506130c982613062565b604082019050919050565b600060208201905081810360008301526130ed816130b1565b9050919050565b60006130ff826126dc565b915061310a836126dc565b925082820390508181111561312257613121612e37565b5b92915050565b613131816128d4565b82525050565b600060408201905061314c6000830185613128565b61315960208301846128aa565b9392505050565b7f555550535570677261646561626c653a206d757374206e6f742062652063616c60008201527f6c6564207468726f7567682064656c656761746563616c6c0000000000000000602082015250565b60006131bc603883612d19565b91506131c782613160565b604082019050919050565b600060208201905081810360008301526131eb816131af565b9050919050565b7f6e6f207265636f766572792077616c6c6574207761732065737461626c69736560008201527f6400000000000000000000000000000000000000000000000000000000000000602082015250565b600061324e602183612d19565b9150613259826131f2565b604082019050919050565b6000602082019050818103600083015261327d81613241565b9050919050565b600081519050613293816126e6565b92915050565b6000602082840312156132af576132ae6124d5565b5b60006132bd84828501613284565b91505092915050565b7f496e697469616c697a61626c653a20636f6e747261637420697320616c72656160008201527f647920696e697469616c697a6564000000000000000000000000000000000000602082015250565b6000613322602e83612d19565b915061332d826132c6565b604082019050919050565b6000602082019050818103600083015261335181613315565b9050919050565b6000819050919050565b600060ff82169050919050565b600061338a61338561338084613358565b612b88565b613362565b9050919050565b61339a8161336f565b82525050565b60006020820190506133b56000830184613391565b92915050565b7f4661696c656420746f2073656e64204574686572000000000000000000000000600082015250565b60006133f1601483612d19565b91506133fc826133bb565b602082019050919050565b60006020820190508181036000830152613420816133e4565b9050919050565b7f6163636f756e743a206e6f74204f776e6572206f7220456e747279506f696e74600082015250565b600061345d602083612d19565b915061346882613427565b602082019050919050565b6000602082019050818103600083015261348c81613450565b9050919050565b600081519050919050565b600081905092915050565b60005b838110156134c75780820151818401526020810190506134ac565b60008484015250505050565b60006134de82613493565b6134e8818561349e565b93506134f88185602086016134a9565b80840191505092915050565b600061351082846134d3565b915081905092915050565b60008151905061352a8161280f565b92915050565b600060208284031215613546576135456124d5565b5b60006135548482850161351b565b91505092915050565b7f45524331393637557067726164653a206e657720696d706c656d656e7461746960008201527f6f6e206973206e6f742055555053000000000000000000000000000000000000602082015250565b60006135b9602e83612d19565b91506135c48261355d565b604082019050919050565b600060208201905081810360008301526135e8816135ac565b9050919050565b7f45524331393637557067726164653a20756e737570706f727465642070726f7860008201527f6961626c65555549440000000000000000000000000000000000000000000000602082015250565b600061364b602983612d19565b9150613656826135ef565b604082019050919050565b6000602082019050818103600083015261367a8161363e565b9050919050565b7f6163636f756e743a206e6f742066726f6d20456e747279506f696e7400000000600082015250565b60006136b7601c83612d19565b91506136c282613681565b602082019050919050565b600060208201905081810360008301526136e6816136aa565b9050919050565b60006bffffffffffffffffffffffff82169050919050565b6000613710826136ed565b91506bffffffffffffffffffffffff820361372e5761372d612e37565b5b600182019050919050565b7f6163636f756e743a20696e76616c6964206e6f6e636500000000000000000000600082015250565b600061376f601683612d19565b915061377a82613739565b602082019050919050565b6000602082019050818103600083015261379e81613762565b9050919050565b50565b60006137b560008361349e565b91506137c0826137a5565b600082019050919050565b60006137d6826137a8565b9150819050919050565b7f6f6e6c79206f776e657200000000000000000000000000000000000000000000600082015250565b6000613816600a83612d19565b9150613821826137e0565b602082019050919050565b6000602082019050818103600083015261384581613809565b9050919050565b7f455243313936373a206e657720696d706c656d656e746174696f6e206973206e60008201527f6f74206120636f6e747261637400000000000000000000000000000000000000602082015250565b60006138a8602d83612d19565b91506138b38261384c565b604082019050919050565b600060208201905081810360008301526138d78161389b565b9050919050565b600081905092915050565b7f19457468657265756d205369676e6564204d6573736167653a0a333200000000600082015250565b600061391f601c836138de565b915061392a826138e9565b601c82019050919050565b6000819050919050565b61395061394b82612805565b613935565b82525050565b600061396182613912565b915061396d828461393f565b60208201915081905092915050565b7f4e487b7100000000000000000000000000000000000000000000000000000000600052602160045260246000fd5b7f45434453413a20696e76616c6964207369676e61747572650000000000000000600082015250565b60006139e1601883612d19565b91506139ec826139ab565b602082019050919050565b60006020820190508181036000830152613a10816139d4565b9050919050565b7f45434453413a20696e76616c6964207369676e6174757265206c656e67746800600082015250565b6000613a4d601f83612d19565b9150613a5882613a17565b602082019050919050565b60006020820190508181036000830152613a7c81613a40565b9050919050565b7f45434453413a20696e76616c6964207369676e6174757265202773272076616c60008201527f7565000000000000000000000000000000000000000000000000000000000000602082015250565b6000613adf602283612d19565b9150613aea82613a83565b604082019050919050565b60006020820190508181036000830152613b0e81613ad2565b9050919050565b613b1e81613362565b82525050565b6000608082019050613b396000830187612aef565b613b466020830186613b15565b613b536040830185612aef565b613b606060830184612aef565b95945050505050565b7f416464726573733a2063616c6c20746f206e6f6e2d636f6e7472616374000000600082015250565b6000613b9f601d83612d19565b9150613baa82613b69565b602082019050919050565b60006020820190508181036000830152613bce81613b92565b9050919050565b600081519050919050565b6000613beb82613bd5565b613bf58185612d19565b9350613c058185602086016134a9565b613c0e81612957565b840191505092915050565b60006020820190508181036000830152613c338184613be0565b90509291505056fe416464726573733a206c6f772d6c6576656c2064656c65676174652063616c6c206661696c6564a26469706673582212200ad220d62f6bb88f54dc1bec58825086b4aad5d21d08286282167d0741120ab364736f6c63430008110033",
	"linkReferences": {},
	"deployedLinkReferences": {}
}