{
	"_format": "hh-sol-artifact-1",
	"contractName": "MainWallet",
	"sourceName": "contracts/MainWallet.sol",
	"abi": [
		{
			"inputs": [
				{
					"internalType": "contract IEntryPoint",
					"name": "anEntryPoint",
					"type": "address"
				},
				{
					"internalType": "address",
					"name": "_attestationStation",
					"type": "address"
				}
			],
			"stateMutability": "nonpayable",
			"type": "constructor"
		},
		{
			"anonymous": false,
			"inputs": [
				{
					"indexed": false,
					"internalType": "address",
					"name": "previousAdmin",
					"type": "address"
				},
				{
					"indexed": false,
					"internalType": "address",
					"name": "newAdmin",
					"type": "address"
				}
			],
			"name": "AdminChanged",
			"type": "event"
		},
		{
			"anonymous": false,
			"inputs": [
				{
					"indexed": true,
					"internalType": "address",
					"name": "beacon",
					"type": "address"
				}
			],
			"name": "BeaconUpgraded",
			"type": "event"
		},
		{
			"anonymous": false,
			"inputs": [
				{
					"indexed": false,
					"internalType": "uint8",
					"name": "version",
					"type": "uint8"
				}
			],
			"name": "Initialized",
			"type": "event"
		},
		{
			"anonymous": false,
			"inputs": [
				{
					"indexed": true,
					"internalType": "contract IEntryPoint",
					"name": "entryPoint",
					"type": "address"
				},
				{
					"indexed": true,
					"internalType": "address",
					"name": "owner",
					"type": "address"
				}
			],
			"name": "SimpleAccountInitialized",
			"type": "event"
		},
		{
			"anonymous": false,
			"inputs": [
				{
					"indexed": true,
					"internalType": "address",
					"name": "implementation",
					"type": "address"
				}
			],
			"name": "Upgraded",
			"type": "event"
		},
		{
			"inputs": [],
			"name": "addDeposit",
			"outputs": [],
			"stateMutability": "payable",
			"type": "function"
		},
		{
			"inputs": [],
			"name": "attestationStation",
			"outputs": [
				{
					"internalType": "address",
					"name": "",
					"type": "address"
				}
			],
			"stateMutability": "view",
			"type": "function"
		},
		{
			"inputs": [],
			"name": "entryPoint",
			"outputs": [
				{
					"internalType": "contract IEntryPoint",
					"name": "",
					"type": "address"
				}
			],
			"stateMutability": "view",
			"type": "function"
		},
		{
			"inputs": [
				{
					"internalType": "address",
					"name": "dest",
					"type": "address"
				},
				{
					"internalType": "uint256",
					"name": "value",
					"type": "uint256"
				},
				{
					"internalType": "bytes",
					"name": "func",
					"type": "bytes"
				}
			],
			"name": "execute",
			"outputs": [],
			"stateMutability": "nonpayable",
			"type": "function"
		},
		{
			"inputs": [
				{
					"internalType": "address[]",
					"name": "dest",
					"type": "address[]"
				},
				{
					"internalType": "bytes[]",
					"name": "func",
					"type": "bytes[]"
				}
			],
			"name": "executeBatch",
			"outputs": [],
			"stateMutability": "nonpayable",
			"type": "function"
		},
		{
			"inputs": [],
			"name": "getDeposit",
			"outputs": [
				{
					"internalType": "uint256",
					"name": "",
					"type": "uint256"
				}
			],
			"stateMutability": "view",
			"type": "function"
		},
		{
			"inputs": [
				{
					"internalType": "address",
					"name": "anOwner",
					"type": "address"
				}
			],
			"name": "initialize",
			"outputs": [],
			"stateMutability": "nonpayable",
			"type": "function"
		},
		{
			"inputs": [
				{
					"internalType": "address",
					"name": "_payeeWallet",
					"type": "address"
				}
			],
			"name": "isPaymentNeeded",
			"outputs": [
				{
					"internalType": "bool",
					"name": "",
					"type": "bool"
				}
			],
			"stateMutability": "view",
			"type": "function"
		},
		{
			"inputs": [
				{
					"internalType": "address",
					"name": "_payeeWallet",
					"type": "address"
				}
			],
			"name": "makeReccuringPayment",
			"outputs": [],
			"stateMutability": "nonpayable",
			"type": "function"
		},
		{
			"inputs": [],
			"name": "newAccount",
			"outputs": [
				{
					"internalType": "address",
					"name": "",
					"type": "address"
				}
			],
			"stateMutability": "view",
			"type": "function"
		},
		{
			"inputs": [],
			"name": "nonce",
			"outputs": [
				{
					"internalType": "uint256",
					"name": "",
					"type": "uint256"
				}
			],
			"stateMutability": "view",
			"type": "function"
		},
		{
			"inputs": [],
			"name": "owner",
			"outputs": [
				{
					"internalType": "address",
					"name": "",
					"type": "address"
				}
			],
			"stateMutability": "view",
			"type": "function"
		},
		{
			"inputs": [],
			"name": "proxiableUUID",
			"outputs": [
				{
					"internalType": "bytes32",
					"name": "",
					"type": "bytes32"
				}
			],
			"stateMutability": "view",
			"type": "function"
		},
		{
			"inputs": [
				{
					"internalType": "address",
					"name": "",
					"type": "address"
				}
			],
			"name": "reccuringPayments",
			"outputs": [
				{
					"internalType": "uint256",
					"name": "paymentAmount",
					"type": "uint256"
				},
				{
					"internalType": "address",
					"name": "token",
					"type": "address"
				},
				{
					"internalType": "uint256",
					"name": "period",
					"type": "uint256"
				},
				{
					"internalType": "uint256",
					"name": "lastPaymentBlock",
					"type": "uint256"
				}
			],
			"stateMutability": "view",
			"type": "function"
		},
		{
			"inputs": [],
			"name": "recoverAccount",
			"outputs": [],
			"stateMutability": "nonpayable",
			"type": "function"
		},
		{
			"inputs": [],
			"name": "recoverWalletEth",
			"outputs": [],
			"stateMutability": "nonpayable",
			"type": "function"
		},
		{
			"inputs": [
				{
					"internalType": "address[]",
					"name": "_tokens",
					"type": "address[]"
				}
			],
			"name": "recoverWalletTokens",
			"outputs": [],
			"stateMutability": "nonpayable",
			"type": "function"
		},
		{
			"inputs": [],
			"name": "recoveryAccount1",
			"outputs": [
				{
					"internalType": "address",
					"name": "",
					"type": "address"
				}
			],
			"stateMutability": "view",
			"type": "function"
		},
		{
			"inputs": [],
			"name": "recoveryAccount2",
			"outputs": [
				{
					"internalType": "address",
					"name": "",
					"type": "address"
				}
			],
			"stateMutability": "view",
			"type": "function"
		},
		{
			"inputs": [],
			"name": "recoveryAccount3",
			"outputs": [
				{
					"internalType": "address",
					"name": "",
					"type": "address"
				}
			],
			"stateMutability": "view",
			"type": "function"
		},
		{
			"inputs": [
				{
					"internalType": "address",
					"name": "_payeeWallet",
					"type": "address"
				},
				{
					"internalType": "uint256",
					"name": "_amount",
					"type": "uint256"
				},
				{
					"internalType": "address",
					"name": "_token",
					"type": "address"
				},
				{
					"internalType": "uint256",
					"name": "_period",
					"type": "uint256"
				},
				{
					"internalType": "uint256",
					"name": "_firstPaymentBlock",
					"type": "uint256"
				}
			],
			"name": "setUpReccuringPayment",
			"outputs": [],
			"stateMutability": "nonpayable",
			"type": "function"
		},
		{
			"inputs": [
				{
					"internalType": "address",
					"name": "_account1",
					"type": "address"
				},
				{
					"internalType": "address",
					"name": "_account2",
					"type": "address"
				},
				{
					"internalType": "address",
					"name": "_account3",
					"type": "address"
				}
			],
			"name": "setUpSocialRecovery",
			"outputs": [],
			"stateMutability": "nonpayable",
			"type": "function"
		},
		{
			"inputs": [
				{
					"internalType": "address",
					"name": "_address",
					"type": "address"
				},
				{
					"internalType": "uint256",
					"name": "amount",
					"type": "uint256"
				}
			],
			"name": "transfer",
			"outputs": [],
			"stateMutability": "payable",
			"type": "function"
		},
		{
			"inputs": [
				{
					"internalType": "address",
					"name": "newImplementation",
					"type": "address"
				}
			],
			"name": "upgradeTo",
			"outputs": [],
			"stateMutability": "nonpayable",
			"type": "function"
		},
		{
			"inputs": [
				{
					"internalType": "address",
					"name": "newImplementation",
					"type": "address"
				},
				{
					"internalType": "bytes",
					"name": "data",
					"type": "bytes"
				}
			],
			"name": "upgradeToAndCall",
			"outputs": [],
			"stateMutability": "payable",
			"type": "function"
		},
		{
			"inputs": [
				{
					"components": [
						{
							"internalType": "address",
							"name": "sender",
							"type": "address"
						},
						{
							"internalType": "uint256",
							"name": "nonce",
							"type": "uint256"
						},
						{
							"internalType": "bytes",
							"name": "initCode",
							"type": "bytes"
						},
						{
							"internalType": "bytes",
							"name": "callData",
							"type": "bytes"
						},
						{
							"internalType": "uint256",
							"name": "callGasLimit",
							"type": "uint256"
						},
						{
							"internalType": "uint256",
							"name": "verificationGasLimit",
							"type": "uint256"
						},
						{
							"internalType": "uint256",
							"name": "preVerificationGas",
							"type": "uint256"
						},
						{
							"internalType": "uint256",
							"name": "maxFeePerGas",
							"type": "uint256"
						},
						{
							"internalType": "uint256",
							"name": "maxPriorityFeePerGas",
							"type": "uint256"
						},
						{
							"internalType": "bytes",
							"name": "paymasterAndData",
							"type": "bytes"
						},
						{
							"internalType": "bytes",
							"name": "signature",
							"type": "bytes"
						}
					],
					"internalType": "struct UserOperation",
					"name": "userOp",
					"type": "tuple"
				},
				{
					"internalType": "bytes32",
					"name": "userOpHash",
					"type": "bytes32"
				},
				{
					"internalType": "uint256",
					"name": "missingAccountFunds",
					"type": "uint256"
				}
			],
			"name": "validateUserOp",
			"outputs": [
				{
					"internalType": "uint256",
					"name": "validationData",
					"type": "uint256"
				}
			],
			"stateMutability": "nonpayable",
			"type": "function"
		},
		{
			"inputs": [
				{
					"internalType": "address payable",
					"name": "withdrawAddress",
					"type": "address"
				},
				{
					"internalType": "uint256",
					"name": "amount",
					"type": "uint256"
				}
			],
			"name": "withdrawDepositTo",
			"outputs": [],
			"stateMutability": "nonpayable",
			"type": "function"
		},
		{
			"stateMutability": "payable",
			"type": "receive"
		}
	],
	"bytecode": "0x60c06040523073ffffffffffffffffffffffffffffffffffffffff1660809073ffffffffffffffffffffffffffffffffffffffff168152503480156200004457600080fd5b50604051620041633803806200416383398181016040528101906200006a91906200026f565b818073ffffffffffffffffffffffffffffffffffffffff1660a08173ffffffffffffffffffffffffffffffffffffffff1681525050620000af620000f960201b60201c565b5080600360006101000a81548173ffffffffffffffffffffffffffffffffffffffff021916908373ffffffffffffffffffffffffffffffffffffffff16021790555050506200039a565b600060019054906101000a900460ff16156200014c576040517f08c379a000000000000000000000000000000000000000000000000000000000815260040162000143906200033d565b60405180910390fd5b60ff801660008054906101000a900460ff1660ff161015620001be5760ff6000806101000a81548160ff021916908360ff1602179055507f7f26b83ff96e1f2b6a682f133852f6798a09c465da95921460cefb384740249860ff604051620001b591906200037d565b60405180910390a15b565b600080fd5b600073ffffffffffffffffffffffffffffffffffffffff82169050919050565b6000620001f282620001c5565b9050919050565b60006200020682620001e5565b9050919050565b6200021881620001f9565b81146200022457600080fd5b50565b60008151905062000238816200020d565b92915050565b6200024981620001e5565b81146200025557600080fd5b50565b60008151905062000269816200023e565b92915050565b60008060408385031215620002895762000288620001c0565b5b6000620002998582860162000227565b9250506020620002ac8582860162000258565b9150509250929050565b600082825260208201905092915050565b7f496e697469616c697a61626c653a20636f6e747261637420697320696e69746960008201527f616c697a696e6700000000000000000000000000000000000000000000000000602082015250565b600062000325602783620002b6565b91506200033282620002c7565b604082019050919050565b60006020820190508181036000830152620003588162000316565b9050919050565b600060ff82169050919050565b62000377816200035f565b82525050565b60006020820190506200039460008301846200036c565b92915050565b60805160a051613d80620003e3600039600081816111ed0152611f210152600081816108f70152818161098501528181610e9301528181610f210152610fd10152613d806000f3fe6080604052600436106101a05760003560e01c806399dff4b4116100ec578063bfe9d7571161008a578063c4d66de811610064578063c4d66de81461055f578063cb459b5b14610588578063d7d0448b146105b3578063e6a2275b146105de576101a7565b8063bfe9d757146104f4578063c091d4cd1461050b578063c399ec8814610534576101a7565b8063affed0e0116100c6578063affed0e01461044a578063b0d691fe14610475578063b61d27f6146104a0578063bf335e62146104c9576101a7565b806399dff4b4146103c35780639f8643f214610403578063a9059cbb1461042e576101a7565b80633a871cdd116101595780634f1ef286116101335780634f1ef2861461032657806352d1902d1461034257806365a0aee21461036d5780638da5cb5b14610398576101a7565b80633a871cdd146102b65780634a58db19146102f35780634d44560d146102fd576101a7565b806318dfb3c7146101ac5780631c8062d2146101d55780633659cfe6146101fe5780633678ce541461022757806338ab7b0214610264578063396860501461028d576101a7565b366101a757005b600080fd5b3480156101b857600080fd5b506101d360048036038101906101ce9190612642565b6105f5565b005b3480156101e157600080fd5b506101fc60048036038101906101f79190612721565b610707565b005b34801561020a57600080fd5b5061022560048036038101906102209190612721565b6108f5565b005b34801561023357600080fd5b5061024e60048036038101906102499190612721565b610a7d565b60405161025b9190612769565b60405180910390f35b34801561027057600080fd5b5061028b600480360381019061028691906127ba565b610b76565b005b34801561029957600080fd5b506102b460048036038101906102af9190612835565b610c8b565b005b3480156102c257600080fd5b506102dd60048036038101906102d891906128e3565b610d53565b6040516102ea9190612961565b60405180910390f35b6102fb610d9c565b005b34801561030957600080fd5b50610324600480360381019061031f91906129ba565b610e11565b005b610340600480360381019061033b9190612b3b565b610e91565b005b34801561034e57600080fd5b50610357610fcd565b6040516103649190612ba6565b60405180910390f35b34801561037957600080fd5b50610382611086565b60405161038f9190612bd0565b60405180910390f35b3480156103a457600080fd5b506103ad6110ac565b6040516103ba9190612bd0565b60405180910390f35b3480156103cf57600080fd5b506103ea60048036038101906103e59190612721565b6110d2565b6040516103fa9493929190612beb565b60405180910390f35b34801561040f57600080fd5b50610418611122565b6040516104259190612bd0565b60405180910390f35b61044860048036038101906104439190612c30565b611148565b005b34801561045657600080fd5b5061045f6111b9565b60405161046c9190612961565b60405180910390f35b34801561048157600080fd5b5061048a6111e9565b6040516104979190612ccf565b60405180910390f35b3480156104ac57600080fd5b506104c760048036038101906104c29190612d40565b611211565b005b3480156104d557600080fd5b506104de61126e565b6040516104eb9190612bd0565b60405180910390f35b34801561050057600080fd5b50610509611294565b005b34801561051757600080fd5b50610532600480360381019061052d9190612db4565b611296565b005b34801561054057600080fd5b506105496114b5565b6040516105569190612961565b60405180910390f35b34801561056b57600080fd5b5061058660048036038101906105819190612721565b61153d565b005b34801561059457600080fd5b5061059d61167d565b6040516105aa9190612bd0565b60405180910390f35b3480156105bf57600080fd5b506105c86116a3565b6040516105d59190612bd0565b60405180910390f35b3480156105ea57600080fd5b506105f36116c9565b005b6105fd6117f8565b818190508484905014610645576040517f08c379a000000000000000000000000000000000000000000000000000000000815260040161063c90612e5e565b60405180910390fd5b60005b84849050811015610700576106ed85858381811061066957610668612e7e565b5b905060200201602081019061067e9190612721565b600085858581811061069357610692612e7e565b5b90506020028101906106a59190612ebc565b8080601f016020809104026020016040519081016040528093929190818152602001838380828437600081840152601f19601f820116905080830192505050505050506118c7565b80806106f890612f4e565b915050610648565b5050505050565b61071081610a7d565b61074f576040517f08c379a000000000000000000000000000000000000000000000000000000000815260040161074690612fe2565b60405180910390fd5b6000600260008373ffffffffffffffffffffffffffffffffffffffff1673ffffffffffffffffffffffffffffffffffffffff168152602001908152602001600020604051806080016040529081600082015481526020016001820160009054906101000a900473ffffffffffffffffffffffffffffffffffffffff1673ffffffffffffffffffffffffffffffffffffffff1673ffffffffffffffffffffffffffffffffffffffff168152602001600282015481526020016003820154815250509050806020015173ffffffffffffffffffffffffffffffffffffffff1663a9059cbb8383600001516040518363ffffffff1660e01b8152600401610854929190613002565b6020604051808303816000875af1158015610873573d6000803e3d6000fd5b505050506040513d601f19601f820116820180604052508101906108979190613057565b5043600260008473ffffffffffffffffffffffffffffffffffffffff1673ffffffffffffffffffffffffffffffffffffffff16815260200190815260200160002060030160008282546108ea9190613084565b925050819055505050565b7f000000000000000000000000000000000000000000000000000000000000000073ffffffffffffffffffffffffffffffffffffffff163073ffffffffffffffffffffffffffffffffffffffff1603610983576040517f08c379a000000000000000000000000000000000000000000000000000000000815260040161097a9061312a565b60405180910390fd5b7f000000000000000000000000000000000000000000000000000000000000000073ffffffffffffffffffffffffffffffffffffffff166109c261194b565b73ffffffffffffffffffffffffffffffffffffffff1614610a18576040517f08c379a0000000000000000000000000000000000000000000000000000000008152600401610a0f906131bc565b60405180910390fd5b610a21816119a2565b610a7a81600067ffffffffffffffff811115610a4057610a3f612a10565b5b6040519080825280601f01601f191660200182016040528015610a725781602001600182028036833780820191505090505b5060006119ad565b50565b600080600260008473ffffffffffffffffffffffffffffffffffffffff1673ffffffffffffffffffffffffffffffffffffffff168152602001908152602001600020604051806080016040529081600082015481526020016001820160009054906101000a900473ffffffffffffffffffffffffffffffffffffffff1673ffffffffffffffffffffffffffffffffffffffff1673ffffffffffffffffffffffffffffffffffffffff168152602001600282015481526020016003820154815250509050600081600001511115610b6b574381604001518260600151610b629190613084565b11915050610b71565b60009150505b919050565b610b7e612535565b8481600001818152505083816020019073ffffffffffffffffffffffffffffffffffffffff16908173ffffffffffffffffffffffffffffffffffffffff168152505082816040018181525050818160600151610bda91906131dc565b5080600260008873ffffffffffffffffffffffffffffffffffffffff1673ffffffffffffffffffffffffffffffffffffffff1681526020019081526020016000206000820151816000015560208201518160010160006101000a81548173ffffffffffffffffffffffffffffffffffffffff021916908373ffffffffffffffffffffffffffffffffffffffff1602179055506040820151816002015560608201518160030155905050505050505050565b82600460006101000a81548173ffffffffffffffffffffffffffffffffffffffff021916908373ffffffffffffffffffffffffffffffffffffffff16021790555081600560006101000a81548173ffffffffffffffffffffffffffffffffffffffff021916908373ffffffffffffffffffffffffffffffffffffffff16021790555080600660006101000a81548173ffffffffffffffffffffffffffffffffffffffff021916908373ffffffffffffffffffffffffffffffffffffffff160217905550505050565b6000610d5d611b1b565b610d678484611b92565b90506000848060400190610d7b9190612ebc565b905003610d8c57610d8b84611c70565b5b610d9582611d1e565b9392505050565b610da46111e9565b73ffffffffffffffffffffffffffffffffffffffff1663b760faf934306040518363ffffffff1660e01b8152600401610ddd9190612bd0565b6000604051808303818588803b158015610df657600080fd5b505af1158015610e0a573d6000803e3d6000fd5b5050505050565b610e19611dba565b610e216111e9565b73ffffffffffffffffffffffffffffffffffffffff1663205c287883836040518363ffffffff1660e01b8152600401610e5b92919061321f565b600060405180830381600087803b158015610e7557600080fd5b505af1158015610e89573d6000803e3d6000fd5b505050505050565b7f000000000000000000000000000000000000000000000000000000000000000073ffffffffffffffffffffffffffffffffffffffff163073ffffffffffffffffffffffffffffffffffffffff1603610f1f576040517f08c379a0000000000000000000000000000000000000000000000000000000008152600401610f169061312a565b60405180910390fd5b7f000000000000000000000000000000000000000000000000000000000000000073ffffffffffffffffffffffffffffffffffffffff16610f5e61194b565b73ffffffffffffffffffffffffffffffffffffffff1614610fb4576040517f08c379a0000000000000000000000000000000000000000000000000000000008152600401610fab906131bc565b60405180910390fd5b610fbd826119a2565b610fc9828260016119ad565b5050565b60007f000000000000000000000000000000000000000000000000000000000000000073ffffffffffffffffffffffffffffffffffffffff163073ffffffffffffffffffffffffffffffffffffffff161461105d576040517f08c379a0000000000000000000000000000000000000000000000000000000008152600401611054906132ba565b60405180910390fd5b7f360894a13ba1a3210667c828492db98dca3e2076cc3735a920a3ca505d382bbc60001b905090565b600360009054906101000a900473ffffffffffffffffffffffffffffffffffffffff1681565b6001600c9054906101000a900473ffffffffffffffffffffffffffffffffffffffff1681565b60026020528060005260406000206000915090508060000154908060010160009054906101000a900473ffffffffffffffffffffffffffffffffffffffff16908060020154908060030154905084565b600660009054906101000a900473ffffffffffffffffffffffffffffffffffffffff1681565b60008273ffffffffffffffffffffffffffffffffffffffff168260405161116e9061330b565b60006040518083038185875af1925050503d80600081146111ab576040519150601f19603f3d011682016040523d82523d6000602084013e6111b0565b606091505b50509050505050565b6000600160009054906101000a90046bffffffffffffffffffffffff166bffffffffffffffffffffffff16905090565b60007f0000000000000000000000000000000000000000000000000000000000000000905090565b6112196117f8565b611268848484848080601f016020809104026020016040519081016040528093929190818152602001838380828437600081840152601f19601f820116905080830192505050505050506118c7565b50505050565b600760009054906101000a900473ffffffffffffffffffffffffffffffffffffffff1681565b565b600073ffffffffffffffffffffffffffffffffffffffff16600760009054906101000a900473ffffffffffffffffffffffffffffffffffffffff1673ffffffffffffffffffffffffffffffffffffffff1603611327576040517f08c379a000000000000000000000000000000000000000000000000000000000815260040161131e90613392565b60405180910390fd5b60005b828290508110156114b05782828281811061134857611347612e7e565b5b905060200201602081019061135d9190612721565b73ffffffffffffffffffffffffffffffffffffffff1663a9059cbb600760009054906101000a900473ffffffffffffffffffffffffffffffffffffffff168585858181106113ae576113ad612e7e565b5b90506020020160208101906113c39190612721565b73ffffffffffffffffffffffffffffffffffffffff166370a08231306040518263ffffffff1660e01b81526004016113fb9190612bd0565b602060405180830381865afa158015611418573d6000803e3d6000fd5b505050506040513d601f19601f8201168201806040525081019061143c91906133c7565b6040518363ffffffff1660e01b8152600401611459929190613002565b6020604051808303816000875af1158015611478573d6000803e3d6000fd5b505050506040513d601f19601f8201168201806040525081019061149c9190613057565b5080806114a890612f4e565b91505061132a565b505050565b60006114bf6111e9565b73ffffffffffffffffffffffffffffffffffffffff166370a08231306040518263ffffffff1660e01b81526004016114f79190612bd0565b602060405180830381865afa158015611514573d6000803e3d6000fd5b505050506040513d601f19601f8201168201806040525081019061153891906133c7565b905090565b60008060019054906101000a900460ff1615905080801561156e5750600160008054906101000a900460ff1660ff16105b8061159b575061157d30611e82565b15801561159a5750600160008054906101000a900460ff1660ff16145b5b6115da576040517f08c379a00000000000000000000000000000000000000000000000000000000081526004016115d190613466565b60405180910390fd5b60016000806101000a81548160ff021916908360ff1602179055508015611617576001600060016101000a81548160ff0219169083151502179055505b61162082611ea5565b80156116795760008060016101000a81548160ff0219169083151502179055507f7f26b83ff96e1f2b6a682f133852f6798a09c465da95921460cefb3847402498600160405161167091906134ce565b60405180910390a15b5050565b600460009054906101000a900473ffffffffffffffffffffffffffffffffffffffff1681565b600560009054906101000a900473ffffffffffffffffffffffffffffffffffffffff1681565b600073ffffffffffffffffffffffffffffffffffffffff16600760009054906101000a900473ffffffffffffffffffffffffffffffffffffffff1673ffffffffffffffffffffffffffffffffffffffff160361175a576040517f08c379a000000000000000000000000000000000000000000000000000000000815260040161175190613392565b60405180910390fd5b6000600760009054906101000a900473ffffffffffffffffffffffffffffffffffffffff1673ffffffffffffffffffffffffffffffffffffffff166108fc479081150290604051600060405180830381858888f193505050509050806117f5576040517f08c379a00000000000000000000000000000000000000000000000000000000081526004016117ec90613535565b60405180910390fd5b50565b6118006111e9565b73ffffffffffffffffffffffffffffffffffffffff163373ffffffffffffffffffffffffffffffffffffffff16148061188657506001600c9054906101000a900473ffffffffffffffffffffffffffffffffffffffff1673ffffffffffffffffffffffffffffffffffffffff163373ffffffffffffffffffffffffffffffffffffffff16145b6118c5576040517f08c379a00000000000000000000000000000000000000000000000000000000081526004016118bc906135a1565b60405180910390fd5b565b6000808473ffffffffffffffffffffffffffffffffffffffff1684846040516118f09190613627565b60006040518083038185875af1925050503d806000811461192d576040519150601f19603f3d011682016040523d82523d6000602084013e611932565b606091505b50915091508161194457805160208201fd5b5050505050565b60006119797f360894a13ba1a3210667c828492db98dca3e2076cc3735a920a3ca505d382bbc60001b611f85565b60000160009054906101000a900473ffffffffffffffffffffffffffffffffffffffff16905090565b6119aa611dba565b50565b6119d97f4910fdfa16fed3260ed0e7147f7cc6da11a60208b5b9406d12a635614ffd914360001b611f8f565b60000160009054906101000a900460ff16156119fd576119f883611f99565b611b16565b8273ffffffffffffffffffffffffffffffffffffffff166352d1902d6040518163ffffffff1660e01b8152600401602060405180830381865afa925050508015611a6557506040513d601f19601f82011682018060405250810190611a629190613653565b60015b611aa4576040517f08c379a0000000000000000000000000000000000000000000000000000000008152600401611a9b906136f2565b60405180910390fd5b7f360894a13ba1a3210667c828492db98dca3e2076cc3735a920a3ca505d382bbc60001b8114611b09576040517f08c379a0000000000000000000000000000000000000000000000000000000008152600401611b0090613784565b60405180910390fd5b50611b15838383612052565b5b505050565b611b236111e9565b73ffffffffffffffffffffffffffffffffffffffff163373ffffffffffffffffffffffffffffffffffffffff1614611b90576040517f08c379a0000000000000000000000000000000000000000000000000000000008152600401611b87906137f0565b60405180910390fd5b565b600080611b9e8361207e565b9050611c0684806101400190611bb49190612ebc565b8080601f016020809104026020016040519081016040528093929190818152602001838380828437600081840152601f19601f82011690508083019250505050505050826120ae90919063ffffffff16565b73ffffffffffffffffffffffffffffffffffffffff166001600c9054906101000a900473ffffffffffffffffffffffffffffffffffffffff1673ffffffffffffffffffffffffffffffffffffffff1614611c64576001915050611c6a565b60009150505b92915050565b80602001356001600081819054906101000a90046bffffffffffffffffffffffff1680929190611c9f90613828565b91906101000a8154816bffffffffffffffffffffffff02191690836bffffffffffffffffffffffff1602179055506bffffffffffffffffffffffff1614611d1b576040517f08c379a0000000000000000000000000000000000000000000000000000000008152600401611d12906138a8565b60405180910390fd5b50565b60008114611db75760003373ffffffffffffffffffffffffffffffffffffffff16827fffffffffffffffffffffffffffffffffffffffffffffffffffffffffffffffff90604051611d6e9061330b565b600060405180830381858888f193505050503d8060008114611dac576040519150601f19603f3d011682016040523d82523d6000602084013e611db1565b606091505b50509050505b50565b6001600c9054906101000a900473ffffffffffffffffffffffffffffffffffffffff1673ffffffffffffffffffffffffffffffffffffffff163373ffffffffffffffffffffffffffffffffffffffff161480611e4157503073ffffffffffffffffffffffffffffffffffffffff163373ffffffffffffffffffffffffffffffffffffffff16145b611e80576040517f08c379a0000000000000000000000000000000000000000000000000000000008152600401611e7790613914565b60405180910390fd5b565b6000808273ffffffffffffffffffffffffffffffffffffffff163b119050919050565b806001600c6101000a81548173ffffffffffffffffffffffffffffffffffffffff021916908373ffffffffffffffffffffffffffffffffffffffff1602179055506001600c9054906101000a900473ffffffffffffffffffffffffffffffffffffffff1673ffffffffffffffffffffffffffffffffffffffff167f000000000000000000000000000000000000000000000000000000000000000073ffffffffffffffffffffffffffffffffffffffff167f47e55c76e7a6f1fd8996a1da8008c1ea29699cca35e7bcd057f2dec313b6e5de60405160405180910390a350565b6000819050919050565b6000819050919050565b611fa281611e82565b611fe1576040517f08c379a0000000000000000000000000000000000000000000000000000000008152600401611fd8906139a6565b60405180910390fd5b8061200e7f360894a13ba1a3210667c828492db98dca3e2076cc3735a920a3ca505d382bbc60001b611f85565b60000160006101000a81548173ffffffffffffffffffffffffffffffffffffffff021916908373ffffffffffffffffffffffffffffffffffffffff16021790555050565b61205b836120d5565b6000825111806120685750805b15612079576120778383612124565b505b505050565b6000816040516020016120919190613a3e565b604051602081830303815290604052805190602001209050919050565b60008060006120bd8585612151565b915091506120ca816121a2565b819250505092915050565b6120de81611f99565b8073ffffffffffffffffffffffffffffffffffffffff167fbc7cd75a20ee27fd9adebab32041f755214dbc6bffa90cc0225b39da2e5c2d3b60405160405180910390a250565b60606121498383604051806060016040528060278152602001613d2460279139612308565b905092915050565b60008060418351036121925760008060006020860151925060408601519150606086015160001a90506121868782858561238e565b9450945050505061219b565b60006002915091505b9250929050565b600060048111156121b6576121b5613a64565b5b8160048111156121c9576121c8613a64565b5b031561230557600160048111156121e3576121e2613a64565b5b8160048111156121f6576121f5613a64565b5b03612236576040517f08c379a000000000000000000000000000000000000000000000000000000000815260040161222d90613adf565b60405180910390fd5b6002600481111561224a57612249613a64565b5b81600481111561225d5761225c613a64565b5b0361229d576040517f08c379a000000000000000000000000000000000000000000000000000000000815260040161229490613b4b565b60405180910390fd5b600360048111156122b1576122b0613a64565b5b8160048111156122c4576122c3613a64565b5b03612304576040517f08c379a00000000000000000000000000000000000000000000000000000000081526004016122fb90613bdd565b60405180910390fd5b5b50565b60606000808573ffffffffffffffffffffffffffffffffffffffff16856040516123329190613627565b600060405180830381855af49150503d806000811461236d576040519150601f19603f3d011682016040523d82523d6000602084013e612372565b606091505b509150915061238386838387612470565b925050509392505050565b6000807f7fffffffffffffffffffffffffffffff5d576e7357a4501ddfe92f46681b20a08360001c11156123c9576000600391509150612467565b6000600187878787604051600081526020016040526040516123ee9493929190613c0c565b6020604051602081039080840390855afa158015612410573d6000803e3d6000fd5b505050602060405103519050600073ffffffffffffffffffffffffffffffffffffffff168173ffffffffffffffffffffffffffffffffffffffff160361245e57600060019250925050612467565b80600092509250505b94509492505050565b606083156124d25760008351036124ca5761248a85611e82565b6124c9576040517f08c379a00000000000000000000000000000000000000000000000000000000081526004016124c090613c9d565b60405180910390fd5b5b8290506124dd565b6124dc83836124e5565b5b949350505050565b6000825111156124f85781518083602001fd5b806040517f08c379a000000000000000000000000000000000000000000000000000000000815260040161252c9190613d01565b60405180910390fd5b604051806080016040528060008152602001600073ffffffffffffffffffffffffffffffffffffffff16815260200160008152602001600081525090565b6000604051905090565b600080fd5b600080fd5b600080fd5b600080fd5b600080fd5b60008083601f8401126125ac576125ab612587565b5b8235905067ffffffffffffffff8111156125c9576125c861258c565b5b6020830191508360208202830111156125e5576125e4612591565b5b9250929050565b60008083601f84011261260257612601612587565b5b8235905067ffffffffffffffff81111561261f5761261e61258c565b5b60208301915083602082028301111561263b5761263a612591565b5b9250929050565b6000806000806040858703121561265c5761265b61257d565b5b600085013567ffffffffffffffff81111561267a57612679612582565b5b61268687828801612596565b9450945050602085013567ffffffffffffffff8111156126a9576126a8612582565b5b6126b5878288016125ec565b925092505092959194509250565b600073ffffffffffffffffffffffffffffffffffffffff82169050919050565b60006126ee826126c3565b9050919050565b6126fe816126e3565b811461270957600080fd5b50565b60008135905061271b816126f5565b92915050565b6000602082840312156127375761273661257d565b5b60006127458482850161270c565b91505092915050565b60008115159050919050565b6127638161274e565b82525050565b600060208201905061277e600083018461275a565b92915050565b6000819050919050565b61279781612784565b81146127a257600080fd5b50565b6000813590506127b48161278e565b92915050565b600080600080600060a086880312156127d6576127d561257d565b5b60006127e48882890161270c565b95505060206127f5888289016127a5565b94505060406128068882890161270c565b9350506060612817888289016127a5565b9250506080612828888289016127a5565b9150509295509295909350565b60008060006060848603121561284e5761284d61257d565b5b600061285c8682870161270c565b935050602061286d8682870161270c565b925050604061287e8682870161270c565b9150509250925092565b600080fd5b600061016082840312156128a4576128a3612888565b5b81905092915050565b6000819050919050565b6128c0816128ad565b81146128cb57600080fd5b50565b6000813590506128dd816128b7565b92915050565b6000806000606084860312156128fc576128fb61257d565b5b600084013567ffffffffffffffff81111561291a57612919612582565b5b6129268682870161288d565b9350506020612937868287016128ce565b9250506040612948868287016127a5565b9150509250925092565b61295b81612784565b82525050565b60006020820190506129766000830184612952565b92915050565b6000612987826126c3565b9050919050565b6129978161297c565b81146129a257600080fd5b50565b6000813590506129b48161298e565b92915050565b600080604083850312156129d1576129d061257d565b5b60006129df858286016129a5565b92505060206129f0858286016127a5565b9150509250929050565b600080fd5b6000601f19601f8301169050919050565b7f4e487b7100000000000000000000000000000000000000000000000000000000600052604160045260246000fd5b612a48826129ff565b810181811067ffffffffffffffff82111715612a6757612a66612a10565b5b80604052505050565b6000612a7a612573565b9050612a868282612a3f565b919050565b600067ffffffffffffffff821115612aa657612aa5612a10565b5b612aaf826129ff565b9050602081019050919050565b82818337600083830152505050565b6000612ade612ad984612a8b565b612a70565b905082815260208101848484011115612afa57612af96129fa565b5b612b05848285612abc565b509392505050565b600082601f830112612b2257612b21612587565b5b8135612b32848260208601612acb565b91505092915050565b60008060408385031215612b5257612b5161257d565b5b6000612b608582860161270c565b925050602083013567ffffffffffffffff811115612b8157612b80612582565b5b612b8d85828601612b0d565b9150509250929050565b612ba0816128ad565b82525050565b6000602082019050612bbb6000830184612b97565b92915050565b612bca816126e3565b82525050565b6000602082019050612be56000830184612bc1565b92915050565b6000608082019050612c006000830187612952565b612c0d6020830186612bc1565b612c1a6040830185612952565b612c276060830184612952565b95945050505050565b60008060408385031215612c4757612c4661257d565b5b6000612c558582860161270c565b9250506020612c66858286016127a5565b9150509250929050565b6000819050919050565b6000612c95612c90612c8b846126c3565b612c70565b6126c3565b9050919050565b6000612ca782612c7a565b9050919050565b6000612cb982612c9c565b9050919050565b612cc981612cae565b82525050565b6000602082019050612ce46000830184612cc0565b92915050565b60008083601f840112612d0057612cff612587565b5b8235905067ffffffffffffffff811115612d1d57612d1c61258c565b5b602083019150836001820283011115612d3957612d38612591565b5b9250929050565b60008060008060608587031215612d5a57612d5961257d565b5b6000612d688782880161270c565b9450506020612d79878288016127a5565b935050604085013567ffffffffffffffff811115612d9a57612d99612582565b5b612da687828801612cea565b925092505092959194509250565b60008060208385031215612dcb57612dca61257d565b5b600083013567ffffffffffffffff811115612de957612de8612582565b5b612df585828601612596565b92509250509250929050565b600082825260208201905092915050565b7f77726f6e67206172726179206c656e6774687300000000000000000000000000600082015250565b6000612e48601383612e01565b9150612e5382612e12565b602082019050919050565b60006020820190508181036000830152612e7781612e3b565b9050919050565b7f4e487b7100000000000000000000000000000000000000000000000000000000600052603260045260246000fd5b600080fd5b600080fd5b600080fd5b60008083356001602003843603038112612ed957612ed8612ead565b5b80840192508235915067ffffffffffffffff821115612efb57612efa612eb2565b5b602083019250600182023603831315612f1757612f16612eb7565b5b509250929050565b7f4e487b7100000000000000000000000000000000000000000000000000000000600052601160045260246000fd5b6000612f5982612784565b91507fffffffffffffffffffffffffffffffffffffffffffffffffffffffffffffffff8203612f8b57612f8a612f1f565b5b600182019050919050565b7f7061796d656e74206e6f74206d61646500000000000000000000000000000000600082015250565b6000612fcc601083612e01565b9150612fd782612f96565b602082019050919050565b60006020820190508181036000830152612ffb81612fbf565b9050919050565b60006040820190506130176000830185612bc1565b6130246020830184612952565b9392505050565b6130348161274e565b811461303f57600080fd5b50565b6000815190506130518161302b565b92915050565b60006020828403121561306d5761306c61257d565b5b600061307b84828501613042565b91505092915050565b600061308f82612784565b915061309a83612784565b92508282019050808211156130b2576130b1612f1f565b5b92915050565b7f46756e6374696f6e206d7573742062652063616c6c6564207468726f7567682060008201527f64656c656761746563616c6c0000000000000000000000000000000000000000602082015250565b6000613114602c83612e01565b915061311f826130b8565b604082019050919050565b6000602082019050818103600083015261314381613107565b9050919050565b7f46756e6374696f6e206d7573742062652063616c6c6564207468726f7567682060008201527f6163746976652070726f78790000000000000000000000000000000000000000602082015250565b60006131a6602c83612e01565b91506131b18261314a565b604082019050919050565b600060208201905081810360008301526131d581613199565b9050919050565b60006131e782612784565b91506131f283612784565b925082820390508181111561320a57613209612f1f565b5b92915050565b6132198161297c565b82525050565b60006040820190506132346000830185613210565b6132416020830184612952565b9392505050565b7f555550535570677261646561626c653a206d757374206e6f742062652063616c60008201527f6c6564207468726f7567682064656c656761746563616c6c0000000000000000602082015250565b60006132a4603883612e01565b91506132af82613248565b604082019050919050565b600060208201905081810360008301526132d381613297565b9050919050565b600081905092915050565b50565b60006132f56000836132da565b9150613300826132e5565b600082019050919050565b6000613316826132e8565b9150819050919050565b7f6e6f207265636f766572792077616c6c6574207761732065737461626c69736560008201527f6400000000000000000000000000000000000000000000000000000000000000602082015250565b600061337c602183612e01565b915061338782613320565b604082019050919050565b600060208201905081810360008301526133ab8161336f565b9050919050565b6000815190506133c18161278e565b92915050565b6000602082840312156133dd576133dc61257d565b5b60006133eb848285016133b2565b91505092915050565b7f496e697469616c697a61626c653a20636f6e747261637420697320616c72656160008201527f647920696e697469616c697a6564000000000000000000000000000000000000602082015250565b6000613450602e83612e01565b915061345b826133f4565b604082019050919050565b6000602082019050818103600083015261347f81613443565b9050919050565b6000819050919050565b600060ff82169050919050565b60006134b86134b36134ae84613486565b612c70565b613490565b9050919050565b6134c88161349d565b82525050565b60006020820190506134e360008301846134bf565b92915050565b7f4661696c656420746f2073656e64204574686572000000000000000000000000600082015250565b600061351f601483612e01565b915061352a826134e9565b602082019050919050565b6000602082019050818103600083015261354e81613512565b9050919050565b7f6163636f756e743a206e6f74204f776e6572206f7220456e747279506f696e74600082015250565b600061358b602083612e01565b915061359682613555565b602082019050919050565b600060208201905081810360008301526135ba8161357e565b9050919050565b600081519050919050565b60005b838110156135ea5780820151818401526020810190506135cf565b60008484015250505050565b6000613601826135c1565b61360b81856132da565b935061361b8185602086016135cc565b80840191505092915050565b600061363382846135f6565b915081905092915050565b60008151905061364d816128b7565b92915050565b6000602082840312156136695761366861257d565b5b60006136778482850161363e565b91505092915050565b7f45524331393637557067726164653a206e657720696d706c656d656e7461746960008201527f6f6e206973206e6f742055555053000000000000000000000000000000000000602082015250565b60006136dc602e83612e01565b91506136e782613680565b604082019050919050565b6000602082019050818103600083015261370b816136cf565b9050919050565b7f45524331393637557067726164653a20756e737570706f727465642070726f7860008201527f6961626c65555549440000000000000000000000000000000000000000000000602082015250565b600061376e602983612e01565b915061377982613712565b604082019050919050565b6000602082019050818103600083015261379d81613761565b9050919050565b7f6163636f756e743a206e6f742066726f6d20456e747279506f696e7400000000600082015250565b60006137da601c83612e01565b91506137e5826137a4565b602082019050919050565b60006020820190508181036000830152613809816137cd565b9050919050565b60006bffffffffffffffffffffffff82169050919050565b600061383382613810565b91506bffffffffffffffffffffffff820361385157613850612f1f565b5b600182019050919050565b7f6163636f756e743a20696e76616c6964206e6f6e636500000000000000000000600082015250565b6000613892601683612e01565b915061389d8261385c565b602082019050919050565b600060208201905081810360008301526138c181613885565b9050919050565b7f6f6e6c79206f776e657200000000000000000000000000000000000000000000600082015250565b60006138fe600a83612e01565b9150613909826138c8565b602082019050919050565b6000602082019050818103600083015261392d816138f1565b9050919050565b7f455243313936373a206e657720696d706c656d656e746174696f6e206973206e60008201527f6f74206120636f6e747261637400000000000000000000000000000000000000602082015250565b6000613990602d83612e01565b915061399b82613934565b604082019050919050565b600060208201905081810360008301526139bf81613983565b9050919050565b600081905092915050565b7f19457468657265756d205369676e6564204d6573736167653a0a333200000000600082015250565b6000613a07601c836139c6565b9150613a12826139d1565b601c82019050919050565b6000819050919050565b613a38613a33826128ad565b613a1d565b82525050565b6000613a49826139fa565b9150613a558284613a27565b60208201915081905092915050565b7f4e487b7100000000000000000000000000000000000000000000000000000000600052602160045260246000fd5b7f45434453413a20696e76616c6964207369676e61747572650000000000000000600082015250565b6000613ac9601883612e01565b9150613ad482613a93565b602082019050919050565b60006020820190508181036000830152613af881613abc565b9050919050565b7f45434453413a20696e76616c6964207369676e6174757265206c656e67746800600082015250565b6000613b35601f83612e01565b9150613b4082613aff565b602082019050919050565b60006020820190508181036000830152613b6481613b28565b9050919050565b7f45434453413a20696e76616c6964207369676e6174757265202773272076616c60008201527f7565000000000000000000000000000000000000000000000000000000000000602082015250565b6000613bc7602283612e01565b9150613bd282613b6b565b604082019050919050565b60006020820190508181036000830152613bf681613bba565b9050919050565b613c0681613490565b82525050565b6000608082019050613c216000830187612b97565b613c2e6020830186613bfd565b613c3b6040830185612b97565b613c486060830184612b97565b95945050505050565b7f416464726573733a2063616c6c20746f206e6f6e2d636f6e7472616374000000600082015250565b6000613c87601d83612e01565b9150613c9282613c51565b602082019050919050565b60006020820190508181036000830152613cb681613c7a565b9050919050565b600081519050919050565b6000613cd382613cbd565b613cdd8185612e01565b9350613ced8185602086016135cc565b613cf6816129ff565b840191505092915050565b60006020820190508181036000830152613d1b8184613cc8565b90509291505056fe416464726573733a206c6f772d6c6576656c2064656c65676174652063616c6c206661696c6564a264697066735822122018875689955383d4fa136faf4bf02272daf89369e66af53d9534d990c0a3177b64736f6c63430008110033",
	"linkReferences": {},
	"deployedLinkReferences": {}
}